:1000000029C0000042C0000040C000003EC0000007
:100010003CC000003AC0000038C0000077C20000B9
:1000200034C0000032C0000030C000002EC000000C
:100030002CC000002AC0000028C0000026C000001C
:1000400024C0000022C0000020C000001EC000002C
:100050001CC0000011241FBECFE5D8E0DEBFCDBF1D
:1000600010E0A0E6B0E0ECEFFFE002C005900D92DA
:10007000AA37B107D9F726E0AAE7B0E001C01D9280
:10008000A73CB207E1F7CBD6B7C7BACF80E063D6BB
:1000900080E0FBD5F5D5F4C30895CF93DF931F928D
:1000A000CDB7DEB781E0898311E0CC24CA94DC2C83
:1000B0007601BE016F5F7F4F80E070D6898181112C
:1000C00022C08091C1069091C206A091C306B09152
:1000D000C4060196A11DB11D8093C1069093C2066E
:1000E000A093C306B093C4068091C6068823B9F0D6
:1000F000C092C106D092C206E092C306F092C40636
:100100001092C6060CC08091C1069091C206A091C3
:10011000C306B091C406BB2314F01093C60681E059
:1001200090E038D5C6CFD1E0C0E00F2EF4E6EF2E38
:10013000F02DF12C00E911E08091C606882351F1E1
:100140008091C1069091C206A091C306B091C406E9
:10015000813D27E09207A105B1051CF480E0C7D5D9
:1001600019C0AC01BD01415D574061097109403DB5
:1001700057406105710528F480E0D5D5D02FC12FF7
:1001800009C0813A9F40A105B10524F080E0CBD59C
:10019000DE2DCF2D8D2F9C2FFDD4CECFCF93DF938F
:1001A000EC01E4D380917A0090917B00892B31F4AB
:1001B0008FE790E090937B0080937A0020917C0001
:1001C00030917D00C9018C0F9D1F8B3D45E0940748
:1001D00070F42817390770F4C0917A00D0917B0031
:1001E000C20FD31F90937D0080937C0005C0C0E0B8
:1001F000D0E002C0C0E0D0E05BD4CE01DF91CF916F
:1002000008950895FC010396928381832FEF3FEFB9
:100210003483238396838583908787831082089510
:10022000FC01118610860895CF93DF939C01FB019A
:10023000DC011196CD91DC911297D383C2838C811E
:100240009D81958384838C819D81DC0113967C93B1
:100250006E9312977D836C8331872087F9018081AB
:100260008F5F8083DF91CF910895CF93DF93EB0170
:10027000488159814F3F2FEF520721F4FC01A7819C
:10028000B0850DC0DC01139601C0DF011296ED911F
:10029000FC9113972081318142175307B0F71296D2
:1002A000ED91FC911397FB83EA83D583C483BD83CF
:1002B000AC831396DC93CE93129799878887FC01C1
:1002C00020812F5F2083DF91CF910895CF93DF931B
:1002D000FC01A085B185C281D381848195819D83F4
:1002E0008C83C481D581828193819B838A8311967B
:1002F0008D919C911297E817F90731F484819581CB
:1003000012969C938E931197118610868C91815032
:100310008C938C91DF91CF91089531E1FC01308372
:10032000319722E220833197A3E3A0833197608342
:100330003197708331971082319760E860833197ED
:100340001082319762E06083319763E06083319778
:1003500064E06083319765E06083319766E0608395
:10036000319767E06083319768E06083319769E097
:100370006083319760E1608331973083319732E158
:100380003083319733E13083319734E130833197D3
:1003900035E13083319736E13083319737E130836F
:1003A000319738E13083319739E13083319730E24A
:1003B0003083319731E2308331972083319723E2C4
:1003C00020833197408331975083319726E22083F1
:1003D000319727E22083319728E22083319729E261
:1003E0002083319720E32083319721E32083869770
:1003F00008951BBC89EF8ABD8BE08EBD89B78061F3
:1004000089BFA091BE06B091BF06CD91CDBFDD9151
:10041000DEBFFF91EF91DF91CF91BF91AF919F919F
:100420008F917F916F915F914F913F912F911F918C
:100430000F91FF90EF90DF90CF90BF90AF909F9083
:100440008F907F906F905F904F903F902F901F9074
:100450000F900FBE0F90089581E008950F920FB690
:10046000F8940F921F9211242F923F924F925F9215
:100470006F927F928F929F92AF92BF92CF92DF92B4
:10048000EF92FF920F931F932F933F934F935F939E
:100490006F937F938F939F93AF93BF93CF93DF938C
:1004A000EF93FF93A091BE06B091BF060DB60D92DB
:1004B0000EB60D927FD3A091BE06B091BF06CD912E
:1004C000CDBFDD91DEBFFF91EF91DF91CF91BF9165
:1004D000AF919F918F917F916F915F914F913F91DC
:1004E0002F911F910F91FF90EF90DF90CF90BF90D1
:1004F000AF909F908F907F906F905F904F903F90C4
:100500002F901F900F900FBE0F9008951F920F9283
:100510000FB60F9211242F933F934F935F936F93D6
:100520007F938F939F93AF93BF93EF93FF9324D2C7
:10053000FF91EF91BF91AF919F918F917F916F91BB
:100540005F914F913F912F910F900FBE0F901F9091
:100550001895E0918606F09187068081811107C089
:100560008FEF9FEF90935E0680935D060895E09174
:100570008606F09187060580F681E02D0680F781DA
:10058000E02D8281938190935E0680935D060895AD
:1005900002E716E080917106882311F10FB6F894F6
:1005A0000F92D8011596ED91FC911697C681D781CF
:1005B000CE0102968BDE809167068150809367069C
:1005C000809171068150809371060F900FBE8F89C4
:1005D000988D17DECE0115DE809171068111DECF78
:1005E0003DDFD8CFFF920F931F93CF93DF93EC01A2
:1005F000F62E00916506109166068091BE069091D8
:10060000BF06029663DECF3F8FEFD80761F4FF206D
:1006100051F06091BE067091BF066E5F7F4F88E615
:1006200096E002DE2DC0C00FD11FE091BE06F09112
:10063000BF06D383C283C017D10760F46091BE06A2
:100640007091BF0680918406909185066E5F7F4F02
:100650000CDE16C06091BE067091BF0680918606C2
:10066000909187066E5F7F4F00DE80915D069091CE
:100670005E06C817D90720F4D0935E06C0935D06C6
:10068000DF91CF911F910F91FF9008954F925F924C
:100690006F927F928F929F92AF92BF92CF92DF9292
:1006A000EF92FF920F93CF93DF934C016B015A01AE
:1006B0002901CA0173DD3C01892B09F4D0C086E20F
:1006C00090E06CDDEC01892B59F0788E6F8A81E027
:1006D000A81AB108A60CB71CC114D10421F41FC07C
:1006E000C3018FDDBCC0D6018C91898F8C9188238A
:1006F000A1F0AE01465E5F4FF6013196B8E0CB0E39
:10070000D11CCF012191DA012D93AD01DC018C9137
:10071000882319F0EC15FD05A1F718A201C0198E68
:10072000043008F003E00E8B6E01B2E0CB0ED11C5A
:10073000C60176DDCE010C9673DDD987C88784E0CB
:1007400090E0801B91099D878C87DB8BCA8B19A257
:100750001AA21BA21CA21DA2A201B401C501DDDDCB
:1007600099838883E114F10419F0F701D183C083E0
:100770000FB6F8940F92809167068F5F809367069B
:100780008091BE069091BF06892B89F5D093BF0654
:10079000C093BE0680916706813009F038C08AE9AF
:1007A00096E030DD83EA96E02DDD8CEA96E02ADDE6
:1007B00085EB96E027DD81E996E024DD88E896E088
:1007C00021DD8BE796E01EDD82E796E01BDD88E603
:1007D00096E018DD81E996E090938706809386067F
:1007E00088E896E0909385068093840610C08091F7
:1007F000630681110CC0E091BE06F091BF06968998
:100800008E89891720F0D093BF06C093BE068091D1
:100810005F068F5F80935F068E89909164069817BC
:1008200010F48093640690E09C01220F331F220F86
:10083000331F220F331F820F931FB6018656994F25
:10084000F3DC0F900FBE80916306882331F0809116
:10085000BE069091BF0681E003C081E001C08FEF2A
:10086000DF91CF910F91FF90EF90DF90CF90BF90ED
:10087000AF909F908F907F906F905F904F90089572
:100880000F931F93CF93DF93EC010FB6F8940F9261
:10089000892B21F4C091BE06D091BF068E010E5F58
:1008A0001F4FC80113DD8C899D89892B19F0CE015A
:1008B0000C960CDD80915F068F5F80935F068091C0
:1008C000BE069091BF06C817D90751F4B80182E758
:1008D00096E0AADC809171068F5F809371060BC051
:1008E000809167068150809367068F89988D89DC97
:1008F000CE0187DC2EDE0F900FBE80916306882329
:1009000041F08091BE069091BF06C817D90709F43F
:10091000A5DDDF91CF911F910F910895EF92FF9286
:100920000F930F2EFBE5EF2EF6E0FF2EF02D00E0EB
:1009300020E030E045E550E060E670E088EC92E0D1
:10094000A5DE813079F4F8948FEF9FEF90935E06E7
:1009500080935D0681E08093630610926606109294
:10096000650647DD0F91FF90EF90089580915A063C
:100970008F5F80935A060895EF92FF920F931F9313
:10098000CF93DF9380915A06811185C0E090650670
:10099000F09066068FEFE81AF80AF0926606E09289
:1009A0006506E114F104B1F4809186069091870602
:1009B0002091840630918506309387062093860621
:1009C0009093850680938406809160068F5F809364
:1009D0006006BFDD80915D0690915E06E816F9061F
:1009E00008F45EC0E0918606F09187068081882336
:1009F00079F0E0918606F09187060580F681E02D7A
:100A0000C681D7818A819B81E816F906D8F415C082
:100A10008FEF9FEF90935E0680935D0641C0E0915B
:100A20008606F09187060580F681E02DC681D78184
:100A30008A819B81E816F90628F490935E068093DC
:100A40005D062EC08E010E5F1F4FC8013FDC8C89F2
:100A50009D89892B19F0CE010C9638DC8E899091F6
:100A60006406981710F48093640690E09C01220FAE
:100A7000331F220F331F220F331F820F931FB80122
:100A80008656994FD1DBE0918606F09187068081EA
:100A90008111C5CFBDCF809162068F5F80936206C2
:100AA00080E0DF91CF911F910F91FF90EF9008951B
:100AB000DF92EF92FF920F931F93CF93DF930FB6C6
:100AC000F8940F9280915A06815080935A06809133
:100AD0005A06811154C080916706811130C04FC001
:100AE000D7011596ED91FC911697C681D781CE015D
:100AF0000C96ECDB8E010E5F1F4FC801E7DB8E8981
:100B000090916406981710F48093640690E09C011D
:100B1000220F331F220F331F220F331F820F931F09
:100B2000B8018656994F80DBE091BE06F091BF0672
:100B30009E898689981768F0D09261060AC0C0E045
:100B4000D0E00F2EFBE7EF2EF6E0FF2EF02DDD2498
:100B5000D394F70180818111C3CFCD2B09F0F9DC4B
:100B6000C0916206CC2349F0D1E006DF8111D09319
:100B70006106C150D1F710926206809161060F9014
:100B80000FBE80E0DF91CF911F910F91FF90EF900A
:100B9000DF900895CF93DF93EC01892B39F0E6DEE7
:100BA00060E0CE011FDD84DF811101C057DCDF91E1
:100BB000CF91089580915A06882321F081E0809397
:100BC000610608951092610620916406822F90E0DC
:100BD000FC01EE0FFF1FEE0FFF1FEE0FFF1FE80FD0
:100BE000F91FE656F94F3081311111C02150822F83
:100BF00090E0FC01EE0FFF1FEE0FFF1FEE0FFF1F37
:100C0000E80FF91FE656F94F3081332379F3AC0131
:100C1000440F551F440F551F440F551F480F591FB0
:100C2000DA01A656B94F1196ED91FC911297028008
:100C3000F381E02D1296FC93EE9311974356594F92
:100C4000E417F50729F442815381FD015283418362
:100C5000FC01EE0FFF1FEE0FFF1FEE0FFF1F8E0FA9
:100C60009F1FFC01E656F94F0180F281E02D86813D
:100C700097819093BF068093BE06209364060895E3
:100C80008091BE069091BF060895CF93DF9300D068
:100C90001F92CDB7DEB7813069F028F0823089F03D
:100CA0008330B1F01BC081E0898380E18A838FEFBC
:100CB0008B8314C081E0898380E28A838FEF8B83EA
:100CC0000DC081E0898380E48A838FEF8B8306C027
:100CD00081E0898380E88A838FEF8B83CE01019640
:100CE000A1D00F900F900F90DF91CF910895813098
:100CF00059F028F0823069F0833081F0089540E0A7
:100D000060E181E0F0C0089540E060E281E0EBC086
:100D1000089540E060E481E0E6C0089540E060E8C6
:100D200081E0E1C00895813051F028F0823059F01F
:100D3000833069F0089560E181E040C1089560E288
:100D400081E03CC1089560E481E038C1089560E825
:100D500081E034C10895CF93DF9300D01F92CDB7C7
:100D6000DEB7882319F0813051F011C082E0898309
:100D700080E18A831B82CE01019654D008C081E0B5
:100D8000898384E08A831B82CE0101964BD080E068
:100D90000F900F900F90DF91CF910895882319F055
:100DA000813031F009C0AB0160E182E0EAD004C0DB
:100DB000AB0164E081E0E5D081E00895EF92FF921D
:100DC0000F93CF93DF9300D0CDB7DEB71A8219828D
:100DD000CE0101967C0100E021E030E044E650E0E5
:100DE00065E670E086E490E051DC21E030E044E626
:100DF00050E06AE670E08DE490E048DC21E030E00D
:100E000044E650E060E770E083E990E03FDC0F905B
:100E10000F90DF91CF910F91FF90EF900895CEDF6B
:100E20007DDDFFCFFC01892B09F451C08081813029
:100E3000C1F028F0823039F18330B9F14AC08281A3
:100E40008F3F31F49AB38181892B8ABB80E008956A
:100E5000811141C09AB38181809589238ABB80E04A
:100E6000089582818F3F31F497B38181892B87BBAD
:100E700080E00895811131C097B3818180958923E5
:100E800087BB80E0089582818F3F31F494B38181E4
:100E9000892B84BB80E00895811121C094B38181A6
:100EA0008095892384BB80E0089582818F3F31F44F
:100EB00091B38181892B81BB80E00895811111C09C
:100EC00091B381818095892381BB80E0089581E081
:100ED000089581E0089581E0089581E0089581E01A
:100EE000089581E008958130A9F028F0823009F159
:100EF000833071F13CC04F3F29F48BB3682B6BBB3F
:100F000080E00895411135C08BB3609568236BBBB9
:100F100080E008954F3F29F488B3682B68BB80E0D8
:100F20000895411128C088B36095682368BB80E0AC
:100F300008954F3F29F485B3682B65BB80E0089581
:100F400041111BC085B36095682365BB80E008959F
:100F50004F3F29F482B3682B62BB80E008954111B2
:100F60000EC082B36095682362BB80E0089581E083
:100F7000089581E0089581E0089581E0089581E079
:100F80000895813059F028F0823069F0833081F083
:100F900013C089B36823FA0160830EC086B3682347
:100FA000FA01608309C083B36823FA01608304C037
:100FB00080B36823FA01608380E00895813059F09E
:100FC00028F0823069F0833081F014C08BB3682739
:100FD0006BBB80E0089588B3682768BB80E0089504
:100FE00085B3682765BB80E0089582B3682762BB3C
:0C0FF00080E0089581E00895F894FFCFA0
:100FFC0049444C4500494E495400746F676765007D
:0A100C00746F6767656C6C65640023
:00000001FF
