:1000000029C0000044C0000042C0000040C0000001
:100010003EC000003CC000003AC00000C5C2000065
:1000200036C0000034C0000032C0000030C0000004
:100030002EC000000C946E092AC000000C946209C6
:1000400026C0000024C0000022C0000020C0000024
:100050001EC0000011241FBECFE5D8E0DEBFCDBF1B
:1000600010E0A0E6B0E0E4E6F3E102C005900D92F6
:10007000AC37B107D9F726E0ACE7B0E001C01D927C
:10008000A03FB207E1F70E9457080C94B009B8CF1F
:10009000CF93DF93CDB7DEB760970FB6F894DEBF8E
:1000A0000FBECDBF80E025D781E08DD7ABD686E0EF
:1000B0008D831C8282E08D871A821B8280E1898772
:1000C00088E08A878FEC90E0988B8F871F8280E88A
:1000D0008E83CE0101960E943A0928D6DBD5609620
:1000E0000FB6F894DEBF0FBECDBFDF91CF9108955C
:1000F000CF93DF931F92CDB7DEB781E0898310E005
:10010000BE016F5F7F4F81E082D7898181110DC071
:10011000809181008F5F80938100823031F481E093
:100120008093CB061092810002C0113091F480912F
:1001300080008F5F8093800080E00DD780918000E9
:100140008A3031F41092800080E021D710E001C0A5
:1001500011E08091C906813019F41092C90611E0AE
:1001600088E290E021D5CCCF07D480917F00813008
:1001700069F480917E008F5F80937E00843121F549
:1001800010927E0010927F00B1D61EC0D4D5C82F29
:100190008336D1F080917D008F5F80937D00823027
:1001A00099F410927D00D0E3DC0F8D2F42D6C3323C
:1001B00009F49CD680917C00E82FF0E0E453F94FDD
:1001C000D0838F5F80937C008091CB068130B1F427
:1001D00080917C00882371F010E0C12FD0E0C453DF
:1001E000D94F88810E945E0918821F5F80917C0030
:1001F000181798F310927C001092CB068EE190E0D5
:10020000D3D4B3CFAB01BC014115510561057105D4
:1002100071F408950197F1F72F5F3F4FC901A0E0F6
:10022000B0E084179507A607B70718F0089520E0F7
:1002300030E088E290E0EECFCF93DF93EC0196D3ED
:100240008091820090918300892B31F487E890E0BF
:1002500090938300809382002091840030918500E8
:10026000C9018C0F9D1F8B3D45E0940770F4281742
:10027000390770F4C0918200D0918300C20FD31F60
:10028000909385008093840005C0C0E0D0E002C058
:10029000C0E0D0E017D4CE01DF91CF91089508954A
:1002A000FC010396928381832FEF3FEF34832383F6
:1002B000968385839087878310820895FC01118639
:1002C00010860895CF93DF939C01FB01DC0111960A
:1002D000CD91DC911297D383C2838C819D819583CC
:1002E00084838C819D81DC0113967C936E9312979D
:1002F0007D836C8331872087F90180818F5F8083C4
:10030000DF91CF910895CF93DF93EB01488159811D
:100310004F3F2FEF520721F4FC01A781B0850DC09C
:10032000DC01139601C0DF011296ED91FC91139749
:100330002081318142175307B0F71296ED91FC915D
:100340001397FB83EA83D583C483BD83AC83139661
:10035000DC93CE93129799878887FC0120812F5FC9
:100360002083DF91CF910895CF93DF93FC01A08587
:10037000B185C281D381848195819D838C83C48121
:10038000D581828193819B838A8311968D919C91E3
:100390001297E817F90731F48481958112969C939E
:1003A0008E931197118610868C9181508C938C912D
:1003B000DF91CF91089531E1FC013083319722E242
:1003C00020833197A3E3A0833197608331977083B3
:1003D00031971082319760E86083319710823197AE
:1003E00062E06083319763E06083319764E060830B
:1003F000319765E06083319766E06083319767E00D
:100400006083319768E06083319769E0608331975A
:1004100060E1608331973083319732E130833197E7
:1004200033E13083319734E13083319735E13083E4
:10043000319736E13083319737E13083319738E1B6
:100440003083319739E13083319730E2308331970F
:1004500031E2308331972083319723E22083319733
:10046000408331975083319726E22083319727E2EA
:100470002083319728E22083319729E22083319726
:1004800020E32083319721E32083869708951BBCC6
:1004900089EF8ABD8BE08EBD89B7806189BFA0914D
:1004A000C606B091C706CD91CDBFDD91DEBFFF91ED
:1004B000EF91DF91CF91BF91AF919F918F917F91FC
:1004C0006F915F914F913F912F911F910F91FF90ED
:1004D000EF90DF90CF90BF90AF909F908F907F90E4
:1004E0006F905F904F903F902F901F900F900FBE96
:1004F0000F90089581E008950F920FB6F8940F922F
:100500001F9211242F923F924F925F926F927F928F
:100510008F929F92AF92BF92CF92DF92EF92FF9213
:100520000F931F932F933F934F935F936F937F93FB
:100530008F939F93AF93BF93CF93DF93EF93FF93EB
:10054000A091C606B091C7060DB60D920EB60D92DB
:100550003BD3A091C606B091C706CD91CDBFDD912A
:10056000DEBFFF91EF91DF91CF91BF91AF919F914E
:100570008F917F916F915F914F913F912F911F913B
:100580000F91FF90EF90DF90CF90BF90AF909F9032
:100590008F907F906F905F904F903F902F901F9023
:1005A0000F900FBE0F9008951F920F920FB60F92EB
:1005B00011242F933F934F935F936F937F938F9368
:1005C0009F93AF93BF93EF93FF93E0D1FF91EF9190
:1005D000BF91AF919F918F917F916F915F914F915B
:1005E0003F912F910F900FBE0F901F901895E091A3
:1005F0008E06F0918F068081811107C08FEF9FEFEB
:1006000090936606809365060895E0918E06F091BA
:100610008F060580F681E02D0680F781E02D82812E
:100620009381909366068093650608950AE716E025
:1006300080917906882311F10FB6F8940F92D801B2
:100640001596ED91FC911697C681D781CE01029641
:100650008BDE80916F06815080936F0680917906C2
:100660008150809379060F900FBE8F89988D17DE89
:10067000CE0115DE809179068111DECF3DDFD8CF26
:10068000FF920F931F93CF93DF93EC01F62E00910F
:100690006D0610916E068091C6069091C70602966F
:1006A00063DECF3F8FEFD80761F4FF2051F06091F8
:1006B000C6067091C7066E5F7F4F80E796E002DE48
:1006C0002DC0C00FD11FE091C606F091C706D3839D
:1006D000C283C017D10760F46091C6067091C70647
:1006E00080918C0690918D066E5F7F4F0CDE16C058
:1006F0006091C6067091C70680918E0690918F0614
:100700006E5F7F4F00DE8091650690916606C81788
:10071000D90720F4D0936606C0936506DF91CF9188
:100720001F910F91FF9008954F925F926F927F9269
:100730008F929F92AF92BF92CF92DF92EF92FF92F1
:100740000F93CF93DF934C016B015A012901CA012A
:1007500073DD3C01892B09F4D0C086E290E06CDDAA
:10076000EC01892B59F0788E6F8A81E0A81AB108C4
:10077000A60CB71CC114D10421F41FC0C3018FDD26
:10078000BCC0D6018C91898F8C918823A1F0AE01D9
:10079000465E5F4FF6013196B8E0CB0ED11CCF011B
:1007A0002191DA012D93AD01DC018C91882319F0A0
:1007B000EC15FD05A1F718A201C0198E043008F050
:1007C00003E00E8B6E01B2E0CB0ED11CC60176DDCC
:1007D000CE010C9673DDD987C88784E090E0801B3A
:1007E00091099D878C87DB8BCA8B19A21AA21BA249
:1007F0001CA21DA2A201B401C501DDDD998388837D
:10080000E114F10419F0F701D183C0830FB6F89415
:100810000F9280916F068F5F80936F068091C6065E
:100820009091C706892B89F5D093C706C093C60659
:1008300080916F06813009F038C082EA96E030DDA1
:100840008BEA96E02DDD84EB96E02ADD8DEB96E0D9
:1008500027DD89E996E024DD80E996E021DD83E863
:1008600096E01EDD8AE796E01BDD80E796E018DD66
:1008700089E996E090938F0680938E0680E996E052
:1008800090938D0680938C0610C080916B06811129
:100890000CC0E091C606F091C70696898E8989172B
:1008A00020F0D093C706C093C606809167068F5F7D
:1008B000809367068E8990916C06981710F4809348
:1008C0006C0690E09C01220F331F220F331F220F72
:1008D000331F820F931FB6018E55994FF3DC0F9093
:1008E0000FBE80916B06882331F08091C6069091EF
:1008F000C70681E003C081E001C08FEFDF91CF9197
:100900000F91FF90EF90DF90CF90BF90AF909F90AE
:100910008F907F906F905F904F900895EF92FF922D
:100920000F930F2EF3E6EF2EF6E0FF2EF02D00E0F2
:1009300020E030E045E550E060E670E086E193E0DD
:10094000F3DE813079F4F8948FEF9FEF9093660691
:100950008093650681E080936B0610926E0610927C
:100960006D0695DD0F91FF90EF90089580916206DE
:100970008F5F8093620608950FB6F8940F9280916E
:100980006D0690916E060F900FBE0895EF92FF9244
:100990000F931F93CF93DF9380916206811185C0DF
:1009A000E0906D06F0906E068FEFE81AF80AF0926C
:1009B0006E06E0926D06E114F104B1F480918E06AA
:1009C00090918F0620918C0630918D0630938F0682
:1009D00020938E0690938D0680938C0680916806F6
:1009E0008F5F8093680603DE8091650690916606AE
:1009F000E816F90608F45EC0E0918E06F0918F06C5
:100A00008081882379F0E0918E06F0918F06058031
:100A1000F681E02DC681D7818A819B81E816F9068F
:100A2000D8F415C08FEF9FEF90936606809365060C
:100A300041C0E0918E06F0918F060580F681E02D91
:100A4000C681D7818A819B81E816F90628F49093A4
:100A50006606809365062EC08E010E5F1F4FC8018B
:100A600083DC8C899D89892B19F0CE010C967CDC66
:100A70008E8990916C06981710F480936C0690E024
:100A80009C01220F331F220F331F220F331F820FAF
:100A9000931FB8018E55994F15DCE0918E06F091A9
:100AA0008F0680818111C5CFBDCF80916A068F5F8F
:100AB00080936A0680E0DF91CF911F910F91FF90A4
:100AC000EF900895DF92EF92FF920F931F93CF93D1
:100AD000DF930FB6F8940F92809162068150809355
:100AE000620680916206811154C080916F06811167
:100AF00030C04FC0D7011596ED91FC911697C68175
:100B0000D781CE010C9630DC8E010E5F1F4FC801DD
:100B10002BDC8E8990916C06981710F480936C06EC
:100B200090E09C01220F331F220F331F220F331F2F
:100B3000820F931FB8018E55994FC4DBE091C60612
:100B4000F091C7069E898689981768F0D092690649
:100B50000AC0C0E0D0E00F2EF3E8EF2EF6E0FF2E43
:100B6000F02DDD24D394F70180818111C3CFCD2BEB
:100B700009F03DDDC0916A06CC2349F0D1E006DFE3
:100B80008111D0936906C150D1F710926A06809105
:100B900069060F900FBE80E0DF91CF911F910F91FA
:100BA000FF90EF90DF900895CF93DF93EC01892BB6
:100BB00039F0DCDE60E0CE0163DD84DF811101C04D
:100BC0009BDCDF91CF91089580916206882321F00C
:100BD00081E08093690608951092690620916C0661
:100BE000822F90E0FC01EE0FFF1FEE0FFF1FEE0FB4
:100BF000FF1FE80FF91FEE55F94F3081311111C079
:100C00002150822F90E0FC01EE0FFF1FEE0FFF1F1F
:100C1000EE0FFF1FE80FF91FEE55F94F3081332318
:100C200079F3AC01440F551F440F551F440F551F56
:100C3000480F591FDA01AE55B94F1196ED91FC914D
:100C400012970280F381E02D1296FC93EE93119798
:100C50004B55594FE417F50729F442815381FD01A3
:100C600052834183FC01EE0FFF1FEE0FFF1FEE0FBB
:100C7000FF1F8E0F9F1FFC01EE55F94F0180F2817F
:100C8000E02D868197819093C7068093C6062093B6
:100C90006C0608950F931F93CF93DF93EC010FB66B
:100CA000F8940F92892B21F4C091C606D091C70603
:100CB0008E010E5F1F4FC80157DB8C899D89892BE0
:100CC00019F0CE010C9650DBB80180E796E0FADA15
:100CD0008DA1813009F41DA20F900FBE80916B068B
:100CE000882331F00FB6F8940F9281DC0F900FBE7D
:100CF0008091C6069091C706C817D90791F48091D4
:100D00006B06882311F0F8DB0CC09091700680917F
:100D10006F06981305C01092C7061092C60601C050
:100D200053DFDF91CF911F910F9108958091C606F7
:100D30009091C706089561E0E0E0F0E083E6A0E16D
:100D4000B0E070E09D010E2E02C0220F331F0A9406
:100D5000E2F724BB209525BB962F40E050E023B35B
:100D600030E0042E02C0359527950A94E2F720FD65
:100D70000EC09B3029F09C3029F09A3029F406C02F
:100D8000872F05C083E203C0892F01C08AE24F5F2D
:100D90005F4F9D5F4430510511F731966F5F6430AE
:100DA00089F60895CF93C82FD998DA98DB9A8BB338
:100DB0008F709C2F907F892B8BBB63E070E080E06D
:100DC00090E020DADB9863E070E080E090E01ADAEF
:100DD000DB9A63E070E080E090E014DA8BB3282FB8
:100DE0002F7030E1C39FC0011124822B8BBB63E0C5
:100DF00070E080E090E006DADB9881E08093DF0627
:100E0000CF9108958AB38E608ABB8AB3806F8ABB04
:100E100082E0C8DF88E2C6DF8CE0C4DF81E0C2DFA9
:100E20001092DE061092DF061092DD061092DC06AC
:100E30000895CF93C82F8091DF06813039F4109246
:100E4000DF0660E570E080E090E0DCD9D99ADA98BE
:100E500061E070E080E090E0D5D9DB9A61E070E07D
:100E600080E090E0CFD98BB38F709C2F907F892B3F
:100E70008BBB63E070E080E090E0C4D9DB9863E076
:100E800070E080E090E0BED9DB9A63E070E080E043
:100E900090E0B8D98BB3282F2F7030E1C39FC001E9
:100EA0001124822B8BBB63E070E080E090E0AAD934
:100EB000DB9861E070E080E090E0A4D9CF910895E4
:100EC000813041F028F0823041F0833049F00AC08F
:100ED000962F08C090E4960F05C090E1960F02C0CF
:100EE00090E5960F892F80685DCF089581E05ACFF5
:100EF0000895CF93DF9300D01F92CDB7DEB7813036
:100F000069F028F0823089F08330B1F01BC081E0B5
:100F1000898380E18A838FEF8B8314C081E089838A
:100F200080E28A838FEF8B830DC081E0898380E428
:100F30008A838FEF8B8306C081E0898380E88A8370
:100F40008FEF8B83CE010196B5D00F900F900F904D
:100F5000DF91CF910895813059F028F0823069F007
:100F6000833081F008954FEF60E181E004C108957E
:100F70004FEF60E281E0FFC008954FEF60E481E051
:100F8000FAC008954FEF60E881E0F5C00895813020
:100F900059F028F0823069F0833081F0089540E004
:100FA00060E181E0E8C0089540E060E281E0E3C0F4
:100FB000089540E060E481E0DEC0089540E060E82C
:100FC00081E0D9C00895CF93DF9300D01F92CDB7B1
:100FD000DEB7882319F0813039F00BC082E08983B5
:100FE00080E18A831B8205C083E0898384E08A8351
:100FF0001B82CE0101965ED04FEF6A818981BBD002
:1010000080E00F900F900F90DF91CF910895CF93D4
:10101000DF93EB01882319F0813039F00CC0AB016C
:1010200064E082E0F6D080E007C0AB0162E083E0DC
:10103000F0D080E001C081E09881911102C0188257
:1010400002C091E09883DF91CF910895EF92FF92D3
:101050000F93CF93DF9300D0CDB7DEB71A821982FA
:10106000CE0101967C0100E021E030E044E650E052
:1010700065E670E088E490E057DB21E030E044E68C
:1010800050E06AE670E088E790E04EDB21E030E077
:1010900044E650E064E770E084EB90E045DB0F90BD
:1010A0000F90DF91CF910F91FF90EF900895CEDFD9
:1010B00035DCFFCFFC01892B09F451C080818130E0
:1010C000C1F028F0823039F18330B9F14AC0828111
:1010D0008F3F31F49AB38181892B8ABB80E00895D8
:1010E000811141C09AB38181809589238ABB80E0B8
:1010F000089582818F3F31F497B38181892B87BB1B
:1011000080E00895811131C097B381818095892352
:1011100087BB80E0089582818F3F31F494B3818151
:10112000892B84BB80E00895811121C094B3818113
:101130008095892384BB80E0089582818F3F31F4BC
:1011400091B38181892B81BB80E00895811111C009
:1011500091B381818095892381BB80E0089581E0EE
:10116000089581E0089581E0089581E0089581E087
:10117000089581E008958130A9F028F0823009F1C6
:10118000833071F13CC04F3F29F48BB3682B6BBBAC
:1011900080E00895411135C08BB3609568236BBB27
:1011A00080E008954F3F29F488B3682B68BB80E046
:1011B0000895411128C088B36095682368BB80E01A
:1011C00008954F3F29F485B3682B65BB80E00895EF
:1011D00041111BC085B36095682365BB80E008950D
:1011E0004F3F29F482B3682B62BB80E00895411120
:1011F0000EC082B36095682362BB80E0089581E0F1
:10120000089581E0089581E0089581E0089581E0E6
:101210000895813081F028F08230B9F08330F9F000
:1012200027C089B390E002C0959587956A95E2F74B
:10123000FA0180831DC086B390E002C09595879522
:101240006A95E2F7FA01808313C083B390E002C08D
:10125000959587956A95E2F7FA01808309C080B376
:1012600090E002C0959587956A95E2F7FA01808330
:1012700080E00895FC01789494858585892B8BB94D
:1012800095818681892B9781892B9085892B9185E2
:10129000892B9285892B9385892B8AB990818181AD
:1012A000892B80689281892B9381892B9481892B4A
:1012B00080BD878580BD868589B908955D9BFECFF9
:1012C0008CB908951F920F920FB60F9211241092AD
:1012D000CA060F900FBE0F901F9018951F920F9285
:1012E0000FB60F9211242F933F934F935F936F93F9
:1012F0007F938F939F93AF93BF93EF93FF93E0916F
:10130000C806F0E08CB1E052F94F80838091C806A6
:101310008F5F8093C80681E08093C9068091C806DC
:10132000813011F460E0CCDD8091C806805D81DD04
:101330008091C806853019F460E080E0C1DDFF913E
:10134000EF91BF91AF919F918F917F916F915F913D
:101350004F913F912F910F900FBE0F901F901895B6
:04136000F894FFCF2F
:1013640049444C4500494E495400746F6767656CA5
:0C1374006C6564006B65797061640000BA
:00000001FF
