S00E000073746F7279312E73726563A4
S113000029C0000042C0000040C000003EC0000003
S11300103CC000003AC0000038C0000004C2000028
S113002034C0000032C0000030C000002EC0000008
S11300302CC000002AC0000028C0000026C0000018
S113004024C0000022C0000020C000001EC0000028
S11300501CC0000011241FBECFE5D8E0DEBFCDBF19
S113006010E0A0E6B0E0E8EFFDE002C005900D92DC
S1130070A437B107D9F726E0A4E7B0E001C01D9288
S1130080AA3BB207E1F734D6B5C6BACF80E0BED5F5
S1130090B8D583C30895CF93DF9300D0CDB7DEB72F
S11300A0F8D39A83898380E0E3D568EE73E0CE01C8
S11300B0019607D5F8CFCF93DF93EC01E4D3809179
S11300C0740090917500892B31F489E790E0909346
S11300D07500809374002091760030917700C901F7
S11300E08C0F9D1F8B3D45E0940770F4281739074A
S11300F070F4C0917400D0917500C20FD31F909317
S113010077008093760005C0C0E0D0E002C0C0E074
S1130110D0E065D4CE01DF91CF9108950895FC011C
S11301200396928381832FEF3FEF34832383968357
S113013085839087878310820895FC011186108639
S11301400895CF93DF939C01FB01DC011196CD91BF
S1130150DC911297D383C2838C819D8195838483A0
S11301608C819D81DC0113967C936E9312977D8321
S11301706C8331872087F90180818F5F8083DF91D1
S1130180CF910895CF93DF93EB01488159814F3F7D
S11301902FEF520721F4FC01A781B0850DC0DC01CB
S11301A0139601C0DF011296ED91FC911397208103
S11301B0318142175307B0F71296ED91FC911397D2
S11301C0FB83EA83D583C483BD83AC831396DC931A
S11301D0CE93129799878887FC0120812F5F208313
S11301E0DF91CF910895CF93DF93FC01A085B18572
S11301F0C281D381848195819D838C83C481D5817F
S1130200828193819B838A8311968D919C9112970D
S1130210E817F90731F48481958112969C938E93A3
S11302201197118610868C9181508C938C91DF915B
S1130230CF91089531E1FC013083319722E220838C
S11302403197A3E3A083319760833197708331970B
S11302501082319760E8608331971082319762E0B1
S11302606083319763E06083319764E06083319702
S113027065E06083319766E06083319767E060836F
S1130280319768E06083319769E06083319760E17A
S1130290608331973083319732E13083319733E192
S11302A03083319734E13083319735E130833197AE
S11302B036E13083319737E13083319738E1308349
S11302C0319739E13083319730E23083319731E22D
S11302D0308331972083319723E220833197408301
S11302E031975083319726E22083319727E2208388
S11302F0319728E22083319729E22083319720E344
S11303002083319721E32083869708951BBC89EFCE
S11303108ABD8BE08EBD89B7806189BFA091B80684
S1130320B091B906CD91CDBFDD91DEBFFF91EF91C4
S1130330DF91CF91BF91AF919F918F917F916F91F9
S11303405F914F913F912F911F910F91FF90EF90EB
S1130350DF90CF90BF90AF909F908F907F906F90E1
S11303605F904F903F902F901F900F900FBE0F9073
S1130370089581E008950F920FB6F8940F921F929A
S113038011242F923F924F925F926F927F928F929D
S11303909F92AF92BF92CF92DF92EF92FF920F9310
S11303A01F932F933F934F935F936F937F938F93F9
S11303B09F93AF93BF93CF93DF93EF93FF93A0915A
S11303C0B806B091B9060DB60D920EB60D92B3D320
S11303D0A091B806B091B906CD91CDBFDD91DEBF35
S11303E0FF91EF91DF91CF91BF91AF919F918F9149
S11303F07F916F915F914F913F912F911F910F9139
S1130400FF90EF90DF90CF90BF90AF909F908F9030
S11304107F906F905F904F903F902F901F900F9020
S11304200FBE0F9008951F920F920FB60F921124D2
S11304302F933F934F935F936F937F938F939F93E8
S1130440AF93BF93EF93FF932ED2FF91EF91BF91A0
S1130450AF919F918F917F916F915F914F913F9158
S11304602F910F900FBE0F901F901895E09180066A
S1130470F09181068081811107C08FEF9FEF9093E7
S11304805806809357060895E0918006F0918106FE
S11304900580F681E02D0680F781E02D828193812D
S11304A0909358068093570608950CE616E08091C1
S11304B06B06882311F10FB6F8940F92D8011596A4
S11304C0ED91FC911697C681D781CE0102968BDE01
S11304D08091610681508093610680916B06815002
S11304E080936B060F900FBE8F89988D17DECE0117
S11304F015DE80916B068111DECF3DDFD8CFFF92F0
S11305000F931F93CF93DF93EC01F62E00915F06B8
S1130510109160068091B8069091B906029663DE48
S1130520CF3F8FEFD80761F4FF2051F06091B806F8
S11305307091B9066E5F7F4F82E696E002DE2DC0B1
S1130540C00FD11FE091B806F091B906D383C283DE
S1130550C017D10760F46091B8067091B906809114
S11305607E0690917F066E5F7F4F0CDE16C0609111
S1130570B8067091B90680918006909181066E5FED
S11305807F4F00DE8091570690915806C817D9070F
S113059020F4D0935806C0935706DF91CF911F9152
S11305A00F91FF9008954F925F926F927F928F9276
S11305B09F92AF92BF92CF92DF92EF92FF920F93EE
S11305C0CF93DF934C016B015A012901CA0173DDFA
S11305D03C01892B09F4D0C086E290E06CDDEC018B
S11305E0892B59F0788E6F8A81E0A81AB108A60C7D
S11305F0B71CC114D10421F41FC0C3018FDDBCC0DA
S1130600D6018C91898F8C918823A1F0AE01465E2E
S11306105F4FF6013196B8E0CB0ED11CCF0121918A
S1130620DA012D93AD01DC018C91882319F0EC15CE
S1130630FD05A1F718A201C0198E043008F003E0EB
S11306400E8B6E01B2E0CB0ED11CC60176DDCE015D
S11306500C9673DDD987C88784E090E0801B9109EC
S11306609D878C87DB8BCA8B19A21AA21BA21CA2A2
S11306701DA2A201B401C501DDDD99838883E114C3
S1130680F10419F0F701D183C0830FB6F8940F92E7
S1130690809161068F5F809361068091B806909186
S11306A0B906892B89F5D093B906C093B806809111
S11306B06106813009F038C084E996E030DD8DE9C7
S11306C096E02DDD86EA96E02ADD8FEA96E027DDC6
S11306D08BE896E024DD82E896E021DD85E796E06C
S11306E01EDD8CE696E01BDD82E696E018DD8BE8E5
S11306F096E0909381068093800682E896E090933A
S11307007F0680937E0610C080915D0681110CC027
S1130710E091B806F091B90696898E89891720F080
S1130720D093B906C093B806809159068F5F809321
S113073059068E8990915E06981710F480935E0690
S113074090E09C01220F331F220F331F220F331F0F
S1130750820F931FB6018C56994FF3DC0F900FBE96
S113076080915D06882331F08091B8069091B90696
S113077081E003C081E001C08FEFDF91CF910F9141
S1130780FF90EF90DF90CF90BF90AF909F908F90AD
S11307907F906F905F904F9008950F931F93CF9326
S11307A0DF93EC010FB6F8940F92892B21F4C091DA
S11307B0B806D091B9068E010E5F1F4FC80113DD34
S11307C08C899D89892B19F0CE010C960CDD8091C2
S11307D059068F5F809359068091B8069091B906A7
S11307E0C817D90751F4B8018CE696E0AADC8091C9
S11307F06B068F5F80936B060BC0809161068150FE
S1130800809361068F89988D89DCCE0187DC2EDE8A
S11308100F900FBE80915D06882341F08091B80649
S11308209091B906C817D90709F4A5DDDF91CF91D6
S11308301F910F910895EF92FF920F930F2EF5E5FC
S1130840EF2EF6E0FF2EF02D00E020E030E045E54D
S113085050E060E670E085E592E0A5DE813079F451
S1130860F8948FEF9FEF909358068093570681E09A
S113087080935D061092600610925F0647DD0F912B
S1130880FF90EF900895809154068F5F80935406F3
S113089008950FB6F8940F9280915F0690916006C8
S11308A00F900FBE0895EF92FF920F931F93CF9373
S11308B0DF9380915406811185C0E0905F06F0902B
S11308C060068FEFE81AF80AF0926006E0925F067D
S11308D0E114F104B1F48091800690918106209195
S11308E07E0630917F063093810620938006909394
S11308F07F0680937E0680915A068F5F80935A0606
S1130900B5DD8091570690915806E816F90608F46B
S11309105EC0E0918006F09181068081882379F0A1
S1130920E0918006F09181060580F681E02DC68174
S1130930D7818A819B81E816F906D8F415C08FEF18
S11309409FEF909358068093570641C0E09180062C
S1130950F09181060580F681E02DC681D7818A81D8
S11309609B81E816F90628F490935806809357065D
S11309702EC08E010E5F1F4FC80135DC8C899D8906
S1130980892B19F0CE010C962EDC8E8990915E068F
S1130990981710F480935E0690E09C01220F331F99
S11309A0220F331F220F331F820F931FB8018C565F
S11309B0994FC7DBE0918006F09181068081811117
S11309C0C5CFBDCF80915C068F5F80935C0680E0CD
S11309D0DF91CF911F910F91FF90EF900895DF92D7
S11309E0EF92FF920F931F93CF93DF930FB6F89478
S11309F00F9280915406815080935406809154063E
S1130A00811154C080916106811130C04FC0D7015B
S1130A101596ED91FC911697C681D781CE010C965F
S1130A20E2DB8E010E5F1F4FC801DDDB8E899091E2
S1130A305E06981710F480935E0690E09C01220FE6
S1130A40331F220F331F220F331F820F931FB8014E
S1130A508C56994F76DBE091B806F091B9069E89E1
S1130A608689981768F0D0925B060AC0C0E0D0E08F
S1130A700F2EF5E7EF2EF6E0FF2EF02DDD24D394B4
S1130A80F70180818111C3CFCD2B09F0EFDCC09138
S1130A905C06CC2349F0D1E006DF8111D0935B06DC
S1130AA0C150D1F710925C0680915B060F900FBE87
S1130AB080E0DF91CF911F910F91FF90EF90DF9035
S1130AC008950F931F93CF93DF938C01EB01DBDE2B
S1130AD040915F0650916006F80120813181C9017F
S1130AE08C0F9D1F4217530748F482179307D0F4C5
S1130AF0918380834817590760F407C082179307CE
S1130B0068F04817590750F00DC060E0841B950B3E
S1130B10F6DC65DF81110AC02EDC08C0F801918380
S1130B208083F3CFF80191838083F3CFDF91CF915A
S1130B301F910F91089580915406882321F081E03C
S1130B4080935B06089510925B0620915E06822FC7
S1130B5090E0FC01EE0FFF1FEE0FFF1FEE0FFF1FD3
S1130B60E80FF91FEC56F94F3081311111C02150B3
S1130B70822F90E0FC01EE0FFF1FEE0FFF1FEE0F20
S1130B80FF1FE80FF91FEC56F94F3081332379F337
S1130B90AC01440F551F440F551F440F551F480FF8
S1130BA0591FDA01AC56B94F1196ED91FC91129789
S1130BB00280F381E02D1296FC93EE93119749562F
S1130BC0594FE417F50729F442815381FD015283FB
S1130BD04183FC01EE0FFF1FEE0FFF1FEE0FFF1FFF
S1130BE08E0F9F1FFC01EC56F94F0180F281E02D1E
S1130BF0868197819093B9068093B80620935E0608
S1130C0008958091B8069091B9060895CF93DF9323
S1130C1000D01F92CDB7DEB7813069F028F0823062
S1130C2089F08330B1F01BC081E0898380E18A833D
S1130C308FEF8B8314C081E0898380E28A838FEFF6
S1130C408B830DC081E0898380E48A838FEF8B835B
S1130C5006C081E0898380E88A838FEF8B83CE018D
S1130C60019649D00F900F900F90DF91CF91089586
S1130C70813051F028F0823059F0833069F00895C2
S1130C8060E181E099C0089560E281E095C0089533
S1130C9060E481E091C0089560E881E08DC008952A
S1130CA0EF92FF920F93CF93DF9300D0CDB7DEB7CF
S1130CB01A821982CE0101967C0100E021E030E025
S1130CC044E650E065E670E086E490E06CDC21E008
S1130CD030E044E650E06AE670E08BE490E063DCE8
S1130CE00F900F90DF91CF910F91FF90EF900895A7
S1130CF0D7DFA1DDFFCFFC01892B09F451C080812E
S1130D008130C1F028F0823039F18330B9F14AC022
S1130D1082818F3F31F49AB38181892B8ABB80E031
S1130D200895811141C09AB38181809589238ABB3A
S1130D3080E0089582818F3F31F497B38181892BBC
S1130D4087BB80E00895811131C097B3818180957C
S1130D50892387BB80E0089582818F3F31F494B367
S1130D608181892B84BB80E00895811121C094B3D3
S1130D7081818095892384BB80E0089582818F3F9F
S1130D8031F491B38181892B81BB80E00895811175
S1130D9011C091B381818095892381BB80E008953E
S1130DA081E0089581E0089581E0089581E0089547
S1130DB081E0089581E00895813059F028F082306F
S1130DC069F0833081F014C08BB368276BBB80E07B
S1130DD0089588B3682768BB80E0089585B36827C1
S1130DE065BB80E0089582B3682762BB80E0089504
S10B0DF081E00895F894FFCF9F
S1130DF849444C4500494E495400746F6767656C13
S1070E086C656400AD
S9030000FC
