:1000000029C0000042C0000040C000003EC0000007
:100010003CC000003AC0000038C000006EC20000C2
:1000200034C0000032C0000030C000002EC000000C
:100030002CC000002AC0000028C0000026C000001C
:1000400024C0000022C0000020C000001EC000002C
:100050001CC0000011241FBECFE5D8E0DEBFCDBF1D
:1000600010E0A0E6B0E0E0E2FFE002C005900D92F3
:10007000AA38B107D9F726E0AAE8B0E001C01D927E
:10008000A83DB207E1F747D749C7BACFA6D623D6CE
:10009000EED3FDCFCF93DF9300D0CDB7DEB763D4DF
:1000A0009A83898304E00F2EF3E0FF2EF02DEE24D7
:1000B000E39480918D00813071F480918C008F5F8A
:1000C00080938C00843109F040C010928C00109213
:1000D0008D00F6D63AC004D6182F8336B1F180E3EE
:1000E000810F92D6133211F4EBD62FC0111113C029
:1000F000E7D680918B00863048F080918A0083306B
:1001000029F480E690E0C7D6E0928D0010928A0034
:1001100010928B001AC080918B00E82FF0E0EF580E
:10012000FF4F908119130CC0853031F490918A00F3
:10013000911102C0F0928A008F5F80938B0005C0FE
:1001400000938A008F5F80938B0064E670E0CE019D
:10015000019621D5AECFAB01BC014115510561051A
:10016000710571F408950197F1F72F5F3F4FC901B1
:10017000A0E0B0E084179507A607B70718F0089528
:1001800020E030E088E290E0EECFCF93DF93EC0107
:10019000E4D380918E0090918F00892B31F483E914
:1001A00090E090938F0080938E002091900030918A
:1001B0009100C9018C0F9D1F8B3D45E0940770F4A1
:1001C0002817390770F4C0918E00D0918F00C20FAC
:1001D000D31F909391008093900005C0C0E0D0E0C1
:1001E00002C0C0E0D0E065D4CE01DF91CF91089588
:1001F0000895FC010396928381832FEF3FEF3483B0
:100200002383968385839087878310820895FC01DA
:10021000118610860895CF93DF939C01FB01DC01CA
:100220001196CD91DC911297D383C2838C819D81ED
:10023000958384838C819D81DC0113967C936E93DE
:1002400012977D836C8331872087F90180818F5FCE
:100250008083DF91CF910895CF93DF93EB014881A5
:1002600059814F3F2FEF520721F4FC01A781B08540
:100270000DC0DC01139601C0DF011296ED91FC91D7
:1002800013972081318142175307B0F71296ED91F1
:10029000FC911397FB83EA83D583C483BD83AC832E
:1002A0001396DC93CE93129799878887FC0120815F
:1002B0002F5F2083DF91CF910895CF93DF93FC01CF
:1002C000A085B185C281D381848195819D838C83F2
:1002D000C481D581828193819B838A8311968D917C
:1002E0009C911297E817F90731F484819581129651
:1002F0009C938E931197118610868C9181508C93CC
:100300008C91DF91CF91089531E1FC0130833197D9
:1003100022E220833197A3E3A08331976083319752
:10032000708331971082319760E860833197108233
:10033000319762E06083319763E06083319764E0D6
:100340006083319765E06083319766E06083319721
:1003500067E06083319768E06083319769E060838C
:10036000319760E1608331973083319732E1308398
:10037000319733E13083319734E13083319735E180
:100380003083319736E13083319737E130833197CD
:1003900038E13083319739E13083319730E230836F
:1003A000319731E2308331972083319723E22083E4
:1003B0003197408331975083319726E220833197DC
:1003C00027E22083319728E22083319729E2208396
:1003D000319720E32083319721E320838697089586
:1003E0001BBC89EF8ABD8BE08EBD89B7806189BF58
:1003F000A091D206B091D306CD91CDBFDD91DEBFE5
:10040000FF91EF91DF91CF91BF91AF919F918F912C
:100410007F916F915F914F913F912F911F910F911C
:10042000FF90EF90DF90CF90BF90AF909F908F9014
:100430007F906F905F904F903F902F901F900F9004
:100440000FBE0F90089581E008950F920FB6F894B3
:100450000F921F9211242F923F924F925F926F92B0
:100460007F928F929F92AF92BF92CF92DF92EF9244
:10047000FF920F931F932F933F934F935F936F932D
:100480007F938F939F93AF93BF93CF93DF93EF931C
:10049000FF93A091D206B091D3060DB60D920EB681
:1004A0000D92B3D3A091D206B091D306CD91CDBF1A
:1004B000DD91DEBFFF91EF91DF91CF91BF91AF91C1
:1004C0009F918F917F916F915F914F913F912F916C
:1004D0001F910F91FF90EF90DF90CF90BF90AF9062
:1004E0009F908F907F906F905F904F903F902F9054
:1004F0001F900F900FBE0F9008951F920F920FB68E
:100500000F9211242F933F934F935F936F937F9399
:100510008F939F93AF93BF93EF93FF932ED2FF914F
:10052000EF91BF91AF919F918F917F916F915F916B
:100530004F913F912F910F900FBE0F901F901895E4
:10054000E0919A06F0919B068081811107C08FEFA0
:100550009FEF90937206809371060895E0919A063A
:10056000F0919B060580F681E02D0680F781E02D55
:10057000828193819093720680937106089506E8B4
:1005800016E080918506882311F10FB6F8940F923A
:10059000D8011596ED91FC911697C681D781CE01B1
:1005A00002968BDE80917B06815080937B06809142
:1005B00085068150809385060F900FBE8F89988D98
:1005C00017DECE0115DE809185068111DECF3DDF7D
:1005D000D8CFFF920F931F93CF93DF93EC01F62EAA
:1005E0000091790610917A068091D2069091D306F7
:1005F000029663DECF3F8FEFD80761F4FF2051F002
:100600006091D2067091D3066E5F7F4F8CE796E0C3
:1006100002DE2DC0C00FD11FE091D206F091D306AB
:10062000D383C283C017D10760F46091D206709162
:10063000D30680919806909199066E5F7F4F0CDEED
:1006400016C06091D2067091D30680919A0690915F
:100650009B066E5F7F4F00DE80917106909172065F
:10066000C817D90720F4D0937206C0937106DF91A2
:10067000CF911F910F91FF9008954F925F926F92CB
:100680007F928F929F92AF92BF92CF92DF92EF9222
:10069000FF920F93CF93DF934C016B015A01290115
:1006A000CA0173DD3C01892B09F4D0C086E290E0D9
:1006B0006CDDEC01892B59F0788E6F8A81E0A81AE5
:1006C000B108A60CB71CC114D10421F41FC0C3018A
:1006D0008FDDBCC0D6018C91898F8C918823A1F0CD
:1006E000AE01465E5F4FF6013196B8E0CB0ED11CED
:1006F000CF012191DA012D93AD01DC018C9188238A
:1007000019F0EC15FD05A1F718A201C0198E0430EF
:1007100008F003E00E8B6E01B2E0CB0ED11CC601D7
:1007200076DDCE010C9673DDD987C88784E090E032
:10073000801B91099D878C87DB8BCA8B19A21AA21B
:100740001BA21CA21DA2A201B401C501DDDD99837B
:100750008883E114F10419F0F701D183C0830FB647
:10076000F8940F9280917B068F5F80937B06809137
:10077000D2069091D306892B89F5D093D306C093E6
:10078000D20680917B06813009F038C08EEA96E06F
:1007900030DD87EB96E02DDD80EC96E02ADD89ECFC
:1007A00096E027DD85EA96E024DD8CE996E021DD00
:1007B0008FE896E01EDD86E896E01BDD8CE796E08C
:1007C00018DD85EA96E090939B0680939A068CE963
:1007D00096E0909399068093980610C080917706D2
:1007E00081110CC0E091D206F091D30696898E89D2
:1007F000891720F0D093D306C093D2068091730658
:100800008F5F809373068E8990917806981710F405
:100810008093780690E09C01220F331F220F331F34
:10082000220F331F820F931FB6018255994FF3DCBD
:100830000F900FBE80917706882331F08091D20609
:100840009091D30681E003C081E001C08FEFDF917A
:10085000CF910F91FF90EF90DF90CF90BF90AF902E
:100860009F908F907F906F905F904F9008950F931F
:100870001F93CF93DF93EC010FB6F8940F92892B5F
:1008800021F4C091D206D091D3068E010E5F1F4F86
:10089000C80113DD8C899D89892B19F0CE010C9636
:1008A0000CDD809173068F5F809373068091D20672
:1008B0009091D306C817D90751F4B80186E896E09D
:1008C000AADC809185068F5F809385060BC080919E
:1008D0007B06815080937B068F89988D89DCCE01C1
:1008E00087DC2EDE0F900FBE80917706882341F0C3
:1008F0008091D2069091D306C817D90709F4A5DDD7
:10090000DF91CF911F910F910895EF92FF920F9376
:100910000F2EFFE6EF2EF6E0FF2EF02D00E020E098
:1009200030E045E550E067E770E08FEB92E0A5DE50
:10093000813079F4F8948FEF9FEF90937206809353
:10094000710681E08093770610927A0610927906FC
:1009500047DD0F91FF90EF90089580916E068F5FB5
:1009600080936E0608950FB6F8940F9280917906E1
:1009700090917A060F900FBE0895EF92FF920F9319
:100980001F93CF93DF9380916E06811185C0E09015
:100990007906F0907A068FEFE81AF80AF0927A0654
:1009A000E0927906E114F104B1F480919A069091F5
:1009B0009B06209198063091990630939B062093D0
:1009C0009A069093990680939806809174068F5F9B
:1009D00080937406B5DD8091710690917206E816D9
:1009E000F90608F45EC0E0919A06F0919B068081BA
:1009F000882379F0E0919A06F0919B060580F681B4
:100A0000E02DC681D7818A819B81E816F906D8F44A
:100A100015C08FEF9FEF909372068093710641C0CF
:100A2000E0919A06F0919B060580F681E02DC68143
:100A3000D7818A819B81E816F90628F49093720683
:100A4000809371062EC08E010E5F1F4FC80135DCEA
:100A50008C899D89892B19F0CE010C962EDC8E890C
:100A600090917806981710F48093780690E09C0196
:100A7000220F331F220F331F220F331F820F931FAA
:100A8000B8018255994FC7DBE0919A06F0919B0619
:100A900080818111C5CFBDCF809176068F5F809315
:100AA000760680E0DF91CF911F910F91FF90EF903C
:100AB0000895DF92EF92FF920F931F93CF93DF93EE
:100AC0000FB6F8940F9280916E06815080936E0657
:100AD00080916E06811154C080917B06811130C0D7
:100AE0004FC0D7011596ED91FC911697C681D7811D
:100AF000CE010C96E2DB8E010E5F1F4FC801DDDBDD
:100B00008E8990917806981710F48093780690E07B
:100B10009C01220F331F220F331F220F331F820F1E
:100B2000931FB8018255994F76DBE091D206F09180
:100B3000D3069E898689981768F0D09275060AC0F8
:100B4000C0E0D0E00F2EFFE8EF2EF6E0FF2EF02DF4
:100B5000DD24D394F70180818111C3CFCD2B09F01F
:100B6000EFDCC0917606CC2349F0D1E006DF81119D
:100B7000D0937506C150D1F7109276068091750614
:100B80000F900FBE80E0DF91CF911F910F91FF90EA
:100B9000EF90DF9008950F931F93CF93DF938C0115
:100BA000EB01DBDE4091790650917A06F801208155
:100BB0003181C9018C0F9D1F4217530748F48217DA
:100BC0009307D0F4918380834817590760F407C0D6
:100BD0008217930768F04817590750F00DC060E07E
:100BE000841B950BF6DC65DF81110AC02EDC08C082
:100BF000F80191838083F3CFF80191838083F3CF51
:100C0000DF91CF911F910F91089580916E068823F7
:100C100021F081E080937506089510927506209169
:100C20007806822F90E0FC01EE0FFF1FEE0FFF1FF2
:100C3000EE0FFF1FE80FF91FE255F94F3081311118
:100C400011C02150822F90E0FC01EE0FFF1FEE0F2C
:100C5000FF1FEE0FFF1FE80FF91FE255F94F30811C
:100C6000332379F3AC01440F551F440F551F440F34
:100C7000551F480F591FDA01A255B94F1196ED9132
:100C8000FC9112970280F381E02D1296FC93EE9373
:100C900011974F54594FE417F50729F442815381B6
:100CA000FD0152834183FC01EE0FFF1FEE0FFF1F7A
:100CB000EE0FFF1F8E0F9F1FFC01E255F94F0180C1
:100CC000F281E02D868197819093D3068093D2069E
:100CD0002093780608958091D2069091D3060895C6
:100CE0001F93CF93DF93D1E060E070E083E6A0E153
:100CF000B0E0E1E0F0E010E09D01062E02C0220F1E
:100D0000331F0A94E2F724BB209525BBCD2F40E08A
:100D100050E023B330E0042E02C0359527950A94A5
:100D2000E2F720FD1BC09F01042E02C0220F331FDB
:100D30000A94E2F783B390E082239323892BD1F3C3
:100D4000CB3029F0CC3029F0CA3029F406C0812FED
:100D500005C083E203C08C2F01C08AE24F5F5F4F62
:100D6000CD5F44305105A9F66F5F7F4FDF5FD43010
:100D700019F6DF91CF911F910895CF93C82FD9987D
:100D8000DA98DB9A8BB38F709C2F907F892B8BBB6B
:100D900063E070E080E090E0DED9DB9863E070E033
:100DA00080E090E0D8D9DB9A63E070E080E090E0EA
:100DB000D2D98BB3282F2F7030E1C39FC0011124EB
:100DC000822B8BBB63E070E080E090E0C4D9DB98BD
:100DD00081E08093D706CF9108958AB38E608ABB55
:100DE0008AB3806F8ABB82E0C8DF88E2C6DF8CE00E
:100DF000C4DF81E0C2DF1092D6061092D7061092AF
:100E0000D5061092D4060895CF93C82F8091D706A7
:100E1000813039F41092D70660E273E080E090E010
:100E20009AD9D99ADA9861E070E080E090E093D99D
:100E3000DB9A61E070E080E090E08DD98BB38F7039
:100E40009C2F907F892B8BBB63E070E080E090E06B
:100E500082D9DB9863E070E080E090E07CD9DB9A97
:100E600063E070E080E090E076D98BB3282F2F709C
:100E700030E1C39FC0011124822B8BBB63E070E083
:100E800080E090E068D9DB9861E070E080E090E07D
:100E900062D9CF9108950F931F93CF93FC01808166
:100EA000882351F08F01C0E0AFDFCF5FF801EC0F76
:100EB000F11D80818111F8CFCF911F910F9108957D
:100EC00081E05BCF0895EF92FF920F93CF93DF9372
:100ED00000D0CDB7DEB71A821982CE0101967C010F
:100EE00000E021E030E044E650E06CE770E086E4AA
:100EF00090E0C3DB21E030E044E650E061E870E0E0
:100F00008AE490E0BADB0F900F90DF91CF910F91C0
:100F1000FF90EF900895D7DFF8DCFFCFF894FFCF74
:100F2000436F72726563742050617373776F72647C
:100F30000001020403030349444C4500494E49544F
:0A0F40000073746F727974776F000C
:00000001FF
